:100000000C9462000C948A000C948A000C948A0070
:100010000C948A000C948A000C948A000C948A0038
:100020000C948A000C948A000C948A000C948A0028
:100030000C948A000C948A000C948A000C948A0018
:100040000C94E8010C948A000C94E5020C948A004C
:100050000C948A000C948A000C948A000C948A00F8
:100060000C948A000C948A000000000024002700F1
:100070002A0000000000250028002B0000000000DE
:1000800023002600290004040404040404040202DA
:100090000202020203030303030301020408102007
:1000A0004080010204081020010204081020000012
:1000B0000007000201000003040600000000000029
:1000C0000000560411241FBECFEFD4E0DEBFCDBF29
:1000D00011E0A0E0B1E0E4EAFAE002C005900D9280
:1000E000A431B107D9F712E0A4E1B1E001C01D923B
:1000F000A833B107E1F710E0C4ECD0E004C02297C8
:10010000FE010E944C05C23CD107C9F70E94E101E3
:100110000C9450050C9400000F931F93182F092F77
:1001200061E070E08091960190919701681B790BD6
:10013000709397016093960182E00E94980283E099
:1001400090E090931701809316018FE390E09093D5
:10015000190180931801212F302F30931B01209318
:100160001A018CE390E08227932790931D018093DE
:100170001C012FEF30E030931F0120931E0185E812
:1001800090E09093210180932001309323012093EC
:10019000220190932501809324011F910F910895CE
:1001A0008091140190911501892B21F082E061E08A
:1001B0000E9498028091040161E00E94980280915F
:1001C0000201909103010E943002809114019091EC
:1001D0001501892B21F082E060E00E949802809155
:1001E000040160E00E949802809102019091030155
:1001F0000E9430020895CF93DF93C0E0D0E00E94C8
:10020000D0002196C431D105D1F7DF91CF91089567
:100210008091080160E00E94980280910201909113
:1002200003010E94300280910201909103010E941B
:10023000300280910201909103010E94300280916E
:100240000201909103010E9430028091080161E057
:100250000E94980208958091140190911501892BB4
:1002600021F082E061E00E9498028091040161E047
:100270000E94980280910001909101010E94300239
:100280008091140190911501892B21F082E060E0AA
:100290000E9498028091040160E00E94980280917F
:1002A0000001909101010E9430020895AF92BF9227
:1002B000CF92DF92EF92FF920F931F93CF93DF9332
:1002C0005B018C01000F111F0A5E1E4F6C0125C0DF
:1002D0000E942B01C0E8D0E0EE24FF24F8018081C9
:1002E00091818C239D23892B19F00E94D00002C09C
:1002F0000E942B010894E11CF11CF8E0EF16F104B8
:1003000039F0CE0162E070E00E94E604EB01E6CF36
:100310000894C11CD11C0E5F1F4FAC14BD04C4F661
:10032000DF91CF911F910F91FF90EF90DF90CF90D1
:10033000BF90AF9008950E94FB0080E090E063E0E2
:1003400070E00E9456010E94D0000E94FB0084E0F1
:1003500090E067E070E00E9456010E94D0000E9489
:10036000080185E292E00E941B042FEF8F3F920765
:1003700011F00E948C00089585E292E040E052EC7A
:1003800061E070E00E9422038091060161E00E941A
:1003900078028091040161E00E9478028091080156
:1003A00061E00E94780282E061E00E94780280E0D1
:1003B00090E00E948C008091080161E00E94980208
:1003C00008950E943E020E94BC010E949B01FDCF45
:1003D0001F920F920FB60F9211242F933F938F937A
:1003E0009F93AF93BF9380919C0190919D01A091A9
:1003F0009E01B0919F013091A0010196A11DB11DF8
:10040000232F2D5F2D3720F02D570196A11DB11DF3
:100410002093A00180939C0190939D01A0939E0145
:10042000B0939F018091980190919901A0919A01B8
:10043000B0919B010196A11DB11D809398019093ED
:100440009901A0939A01B0939B01BF91AF919F91A5
:100450008F913F912F910F900FBE0F901F90189585
:10046000019759F0FC01EE0FFF1FEE0FFF1F3297AF
:100470008FB7F8943197F1F78FBF0895789484B5CA
:10048000826084BD84B5816084BD85B5826085BD90
:1004900085B5816085BDEEE6F0E080818160808376
:1004A000E1E8F0E0808182608083808181608083E8
:1004B000E0E8F0E0808181608083E1EBF0E0808122
:1004C00084608083E0EBF0E0808181608083EAE7F4
:1004D000F0E080818460808380818260808380817D
:1004E000816080838081806880831092C10008953C
:1004F000282F30E0C90186569F4FFC0194912A575E
:100500003F4FF9018491882391F0E82FF0E0EE0F3E
:10051000FF1FE859FF4FA591B491662329F48C91F0
:10052000909589238C9308958C91892B8C930895B1
:10053000482F50E0CA0182559F4FFC012491CA0107
:1005400086569F4FFC0194914A575F4FFA013491B0
:100550003323D1F1222331F1233021F48091800023
:100560008F7705C0243031F4809180008F7D809397
:10057000800018C0213019F484B58F7704C0223070
:1005800021F484B58F7D84BD0DC0263021F4809187
:10059000B0008F7705C0273029F48091B0008F7D9F
:1005A0008093B000E32FF0E0EE0FFF1FEE58FF4FF7
:1005B000A591B491662329F48C91909589238C930D
:1005C00008958C91892B8C9308951F920F920FB6EA
:1005D0000F9211242F933F934F935F936F937F93C9
:1005E0008F939F93AF93BF93EF93FF934091C60078
:1005F000E0912102F0912202CF01019660E870E0C3
:100600000E94E6049C018091230290912402281705
:10061000390739F0EF55FE4F408330932202209383
:100620002102FF91EF91BF91AF919F918F917F91A7
:100630006F915F914F913F912F910F900FBE0F904F
:100640001F9018955F926F927F928F929F92AF92B8
:10065000BF92CF92DF92EF92FF920F931F93CF93AF
:10066000DF93EC013A014B01413482E458078FE0FB
:10067000680780E078070CF07FC060E874E88EE1DE
:1006800090E0A40193010E941B052150304040409E
:100690005040CA01B90122E030E040E050E00E9441
:1006A0001B0559016A01A6019501209530954095D9
:1006B000509594E0220F331F441F551F9A95D1F790
:1006C00060E074E284EF90E00E941B05CA01B9016A
:1006D0002FEF30E040E050E00E94C704A4019301F6
:1006E0000E941B05C90181509F4F181619061CF462
:1006F000522E5A9403C055245394521A60E079E064
:100700008DE390E0A40193010E941B05215030402D
:1007100040405040CA01B90122E030E040E050E0E2
:100720000E941B05209530954095509583E0220F3F
:10073000331F441F551F8A95D1F760E074E284EFA0
:1007400090E00E941B05CA01B9012FEF30E040E0A4
:1007500050E00E94C704A40193010E941B05C90137
:1007600081509F4F181619061CF4822F815002C029
:1007700081E0821B851500F5E885F98581E090E030
:100780000A8802C0880F991F0A94E2F7808360E00C
:1007900079E08DE390E0A40193010E941B052150B4
:1007A000304040405040CA01B90122E030E040E012
:1007B00050E00E941B0504C0E885F9851082950170
:1007C000EC81FD813083EE81FF812083EA85FB850A
:1007D000208141E050E0CA010E8402C0880F991FB9
:1007E0000A94E2F7282B2083EA85FB852081CA0141
:1007F0000F8402C0880F991F0A94E2F7282B2083E8
:10080000EA85FB858081088802C0440F551F0A9441
:10081000E2F7842B8083DF91CF911F910F91FF909E
:10082000EF90DF90CF90BF90AF909F908F907F9090
:100830006F905F900895CF93DF93DC011296ED9156
:10084000FC911397EF01CE57DF4F48815981E05853
:10085000FF4F80819181E058F0408417950719F48B
:100860002FEF3FEF0CC0E40FF51F2081CA01019666
:1008700060E870E00E94E6049983888330E0C90153
:10088000DF91CF910895FC01A085B18521898C91DC
:1008900090E0022E02C0959587950A94E2F780FFBA
:1008A000F6CF0484F585E02D608308958EE091E015
:1008B000909326028093250281EA91E0909328028A
:1008C0008093270285EC90E090932A02809329027E
:1008D00084EC90E090932C0280932B0280EC90E0CB
:1008E00090932E0280932D0281EC90E09093300241
:1008F00080932F0286EC90E0909332028093310235
:1009000084E08093330283E08093340287E0809315
:10091000350285E08093360281E0809337020895A6
:100920000F931F93CF93DF938C01EB0109C02196A6
:10093000D801ED91FC910190F081E02DC80109955D
:1009400068816623A1F7DF91CF911F910F910895E0
:10095000EF92FF920F931F93CF93DF938C017B0154
:10096000EA010CC0D7016D917D01D801ED91FC9198
:100970000190F081E02DC80109952197209791F70A
:10098000DF91CF911F910F91FF90EF900895629F9B
:10099000D001739FF001829FE00DF11D649FE00D77
:1009A000F11D929FF00D839FF00D749FF00D659FD8
:1009B000F00D9927729FB00DE11DF91F639FB00DD7
:1009C000E11DF91FBD01CF011124089597FB092EE8
:1009D00007260AD077FD04D049D006D000201AF4AB
:1009E000709561957F4F0895F6F7909581959F4F8B
:1009F0000895A1E21A2EAA1BBB1BFD010DC0AA1F60
:100A0000BB1FEE1FFF1FA217B307E407F50720F077
:100A1000A21BB30BE40BF50B661F771F881F991FF2
:100A20001A9469F760957095809590959B01AC013B
:100A3000BD01CF01089597FB092E05260ED057FD65
:100A400004D0D7DF0AD0001C38F45095409530957B
:100A500021953F4F4F4F5F4F0895F6F79095809542
:100A6000709561957F4F8F4F9F4F0895AA1BBB1BB9
:100A700051E107C0AA1FBB1FA617B70710F0A61B9E
:100A8000B70B881F991F5A95A9F780959095BC01BF
:100A9000CD010895EE0FFF1F0590F491E02D09940C
:040AA000F894FFCFF8
:100AA40064003A0007000D00060000000000430443
:040AB4009004A804FE
:00000001FF
