:100000000C9462000C948A000C948A000C948A0070
:100010000C948A000C948A000C948A000C948A0038
:100020000C948A000C948A000C948A000C948A0028
:100030000C948A000C948A000C948A000C948A0018
:100040000C9400030C948A000C94E8010C948A0030
:100050000C948A000C948A000C948A000C948A00F8
:100060000C948A000C948A000000000024002700F1
:100070002A0000000000250028002B0000000000DE
:1000800023002600290004040404040404040202DA
:100090000202020203030303030301020408102007
:1000A0004080010204081020010204081020000012
:1000B0000007000201000003040600000000000029
:1000C0000000C90211241FBECFEFD4E0DEBFCDBFB8
:1000D00011E0A0E0B1E0E2E2F9E002C005900D928B
:1000E000A031B107D9F712E0A0E1B1E001C01D9243
:1000F000A633B107E1F710E0C4ECD0E004C02297CA
:10010000FE010E948B04C23CD107C9F70E94E101A5
:100110000C948F040C9400000F931F93182F092F39
:1001200061E070E08091920190919301681B790BDE
:10013000709393016093920182E00E94D80383E060
:1001400090E090931301809312018FE390E09093DD
:10015000150180931401212F302F30931701209324
:1001600016018CE390E082279327909319018093E6
:1001700018012FEF30E030931B0120931A0185E81E
:1001800090E090931D0180931C0130931F012093F8
:100190001E0190932101809320011F910F910895DA
:1001A0008091100190911101892B21F082E061E092
:1001B0000E94D8038091040161E00E94D8038091DD
:1001C0000201909103010E947003809110019091AF
:1001D0001101892B21F082E060E00E94D803809118
:1001E000040160E00E94D803809102019091030114
:1001F0000E9470030895CF93DF93C0E0D0E00E9487
:10020000D0002196C431D105D1F7DF91CF91089567
:100210008091080160E00E94D803809102019091D2
:1002200003010E94700380910201909103010E94DA
:10023000700380910201909103010E9470038091EC
:100240000201909103010E9470038091080161E016
:100250000E94D80308958091100190911101892B7B
:1002600021F082E061E00E94D8038091040161E006
:100270000E94D80380910001909101010E947003B7
:100280008091100190911101892B21F082E060E0B2
:100290000E94D8038091040160E00E94D8038091FD
:1002A0000001909101010E9470030895AF92BF92E6
:1002B000CF92DF92EF92FF920F931F93CF93DF9332
:1002C0005B018C01000F111F0E5E1E4F6C0125C0DB
:1002D0000E942B01C0E8D0E0EE24FF24F8018081C9
:1002E00091818C239D23892B19F00E94D00002C09C
:1002F0000E942B010894E11CF11CF8E0EF16F104B8
:1003000039F0CE0162E070E00E942504EB01E6CFF7
:100310000894C11CD11C0E5F1F4FAC14BD04C4F661
:10032000DF91CF911F910F91FF90EF90DF90CF90D1
:10033000BF90AF9008950E94FB0080E090E063E0E2
:1003400070E00E9456010E94D0000E94FB0084E0F1
:1003500090E067E070E00E9456010E94D0000E9489
:10036000080188E192E00E948E022FEF8F3F9207F2
:1003700011F00E948C00089588E192E040E052EC78
:1003800061E070E00E9425028091060161E00E9418
:10039000B8038091040161E00E94B80380910801D4
:1003A00061E00E94B80382E061E00E94B8038FE13F
:1003B00090E00E948C008091080161E00E94D803C7
:1003C00008950E947E030E94BC010E949B01FDCF04
:1003D0001F920F920FB60F9211242F933F934F93BA
:1003E0005F936F937F938F939F93AF93BF93EF939D
:1003F000FF934091C600E0911402F0911502CF01E5
:10040000019660E870E00E9425049C01809116022C
:10041000909117022817390739F0EC56FE4F4083A8
:100420003093150220931402FF91EF91BF91AF9189
:100430009F918F917F916F915F914F913F912F91FC
:100440000F900FBE0F901F901895AF92BF92CF9252
:10045000DF92EF92FF920F931F93CF93DF936C0184
:100460007A018B01DC011496AD90BC901597CB01FD
:10047000BA0122E030E040E050E00E943804205C05
:100480003D4B404F5F4FCA01B901A80197010E943F
:100490003804C901DA010197A109B109292F3A2FBE
:1004A0004B2F552747FD5A950196A11DB11DE5011A
:1004B0002883E601EE81FF8181508083EA85FB85F8
:1004C000208141E050E0CA010E8402C0880F991FCC
:1004D0000A94E2F7282B2083EA85FB852081CA0154
:1004E0000F8402C0880F991F0A94E2F7282B2083FB
:1004F000EA85FB858081088802C0440F551F0A9455
:10050000E2F7842B8083DF91CF911F910F91FF90B1
:10051000EF90DF90CF90BF90AF900895CF93DF938F
:10052000DC011296ED91FC911397EF01CE57DF4F4E
:1005300048815981E058FF4F80819181E058F04017
:100540008417950719F42FEF3FEF0CC0E40FF51F48
:100550002081CA01019660E870E00E942504998319
:10056000888330E0C901DF91CF910895FC01A08517
:10057000B18521898C9190E0022E02C095958795D6
:100580000A94E2F780FFF6CF0484F585E02D6083BE
:1005900008958EE091E0909319028093180284E907
:1005A00091E090931B0280931A0285EC90E0909367
:1005B0001D0280931C0284EC90E090931F028093B4
:1005C0001E0280EC90E0909321028093200281EC47
:1005D00090E0909323028093220286EC90E0909327
:1005E00025028093240284E08093260283E0809396
:1005F000270287E08093280285E0809329020895EE
:100600001F920F920FB60F9211242F938F939F93E7
:10061000AF93BF9380912A0290912B02A0912C025C
:10062000B0912D020196A11DB11D80932A029093D5
:100630002B02A0932C02B0932D0280912E02909158
:100640002F02A0913002B09131028050904CAF4FF8
:10065000BF4F80932E0290932F02A0933002B0934D
:10066000310227C080912E0290912F02A09130027A
:10067000B091310280589E43A040B04080932E023A
:1006800090932F02A0933002B093310280913202F6
:1006900090913302A0913402B09135020196A11DD0
:1006A000B11D8093320290933302A0933402B09331
:1006B000350280912E0290912F02A0913002B091CC
:1006C000310281589E43A040B04060F6BF91AF9187
:1006D0009F918F912F910F900FBE0F901F901895A3
:1006E000019759F0FC01EE0FFF1FEE0FFF1F32972D
:1006F0008FB7F8943197F1F78FBF0895789484B548
:10070000826084BD84B5816084BD85B5826085BD0D
:1007100085B5816085BDEEE6F0E0808181608083F3
:10072000E1E8F0E080818260808380818160808365
:10073000E0E8F0E0808181608083E1EBF0E080819F
:1007400084608083E0EBF0E0808181608083EAE771
:10075000F0E08081846080838081826080838081FA
:10076000816080838081806880831092C1000895B9
:10077000282F30E0C90186569F4FFC0194912A57DB
:100780003F4FF9018491882391F0E82FF0E0EE0FBC
:10079000FF1FE859FF4FA591B491662329F48C916E
:1007A000909589238C9308958C91892B8C9308952F
:1007B000482F50E0CA0182559F4FFC012491CA0185
:1007C00086569F4FFC0194914A575F4FFA0134912E
:1007D0003323D1F1222331F1233021F480918000A1
:1007E0008F7705C0243031F4809180008F7D809315
:1007F000800018C0213019F484B58F7704C02230EE
:1008000021F484B58F7D84BD0DC0263021F4809104
:10081000B0008F7705C0273029F48091B0008F7D1C
:100820008093B000E32FF0E0EE0FFF1FEE58FF4F74
:10083000A591B491662329F48C91909589238C938A
:1008400008958C91892B8C93089597FB092E072688
:100850000AD077FD04D027D006D000201AF4709576
:1008600061957F4F0895F6F7909581959F4F089574
:1008700097FB092E05260ED057FD04D028D00AD0AC
:10088000001C38F450954095309521953F4F4F4FBF
:100890005F4F0895F6F790958095709561957F4F1D
:1008A0008F4F9F4F0895AA1BBB1B51E107C0AA1F82
:1008B000BB1FA617B70710F0A61BB70B881F991F01
:1008C0005A95A9F780959095BC01CD010895A1E2B4
:1008D0001A2EAA1BBB1BFD010DC0AA1FBB1FEE1FBA
:1008E000FF1FA217B307E407F50720F0A21BB30B05
:1008F000E40BF50B661F771F881F991F1A9469F781
:1009000060957095809590959B01AC01BD01CF01DC
:100910000895EE0FFF1F0590F491E02D0994F894CF
:02092000FFCF07
:1009220064003A0007000D00060000000000B60255
:00000001FF
