:100000000C9402010C9422010C9422010C94220104
:100010000C9422010C9422010C9422010C942201D4
:100020000C9422010C9422010C9422010C942201C4
:100030000C9422010C9422010C9422010C942201B4
:100040000C9422010C9422010C9422010C942201A4
:100050000C9422010C9422010C9422010C9499011D
:100060000C9422010C9422010C9422010C94220184
:100070000C9422010C9422010C9422010C94220174
:100080000C9422010C9422010C9422010C94220164
:100090000C9422010C9422010C9422010C94220154
:1000A0000C9422010C9422010C9422010C94220144
:1000B0000C9422010C9422010C9422010C94220134
:1000C0000C9422010C9422010C9422010C94220124
:1000D0000C9422010C9422010C9422010C94220114
:1000E0000C94220100002100240027002A002D008A
:1000F0003000330001010000040107010A01000083
:100100002200250028002B002E00310034000201BF
:100110000000050108010B0100002000230026005B
:1001200029002C002F00320000010000030106010D
:10013000090105050505070508080808020202026D
:100140000A0A080804040404010101010101010173
:100150000303030303030303040707070C0C0C0C3E
:100160000C0C0C0C02020202060606060606060627
:100170000B0B0B0B0B0B0B0B0102102020080810B4
:100180002040102040800201020108040201010207
:1001900004081020408080402010080402018004E0
:1001A000020180402010080402010804020101023B
:1001B0000408102040800102040810204080000044
:1001C000090A02080B0C0D070603040100000000D9
:1001D000000000000000000000000000000000001F
:1001E00000000000000000000000100F0E000000E2
:1001F00000000000000000000000000000000000FF
:100200000000000011241FBECFEFD1E2DEBFCDBF42
:1002100012E0A0E0B2E0EEE4F6E000E00BBF02C0C6
:1002200007900D92A830B107D9F71BBE12E0A8E0E5
:10023000B2E001C01D92A131B107E1F70E94920125
:100240000C9425030C9400001F93182F61E00E946A
:100250009A028091000261E00E949A028091060257
:10026000909107020E940B02812F60E00E949A0287
:100270008091000260E00E949A02809106029091B3
:1002800007020E940B02812F61E00E949A02809176
:10029000000261E00E949A0280910602909107029A
:1002A0000E940B02812F60E00E949A02809100025E
:1002B00060E00E949A0280910602909107020E94DB
:1002C0000B021F91089580910402909105020E94F3
:1002D0002401089580910202909103020E9424015A
:1002E00008950E946A0168E873E180E090E00E944E
:1002F000E1010E94630168E873E180E090E00E9400
:10030000E10108958091000261E00E947A028091EB
:10031000020261E00E947A028091040261E00E9480
:100320007A0208950E9419020E9482010E947101BE
:10033000FDCF1F920F920FB60F9211242F933F9370
:100340008F939F93AF93BF9380910C0290910D0276
:10035000A0910E02B0910F02309110020196A11DE2
:10036000B11D232F2D5F2D3720F02D570196A11D94
:10037000B11D2093100280930C0290930D02A09364
:100380000E02B0930F028091080290910902A09191
:100390000A02B0910B020196A11DB11D80930802C3
:1003A00090930902A0930A02B0930B02BF91AF9100
:1003B0009F918F913F912F910F900FBE0F901F90A3
:1003C0001895EF92FF920F931F937B018C018FB7CB
:1003D000F89440910C0250910D0260910E027091C0
:1003E0000F028FBF2FB7F89480910C0290910D02ED
:1003F000A0910E02B0910F022FBF841B950BA60B8C
:10040000B70BE816F9060A071B0760F71F910F9153
:10041000FF90EF900895019759F0FC01EE0FFF1F38
:10042000EE0FFF1F32978FB7F8943197F1F78FBF18
:100430000895789484B5826084BD84B5816084BD5C
:1004400085B5826085BD85B5816085BDEEE6F0E04D
:10045000808181608083E1E8F0E080818260808338
:10046000808181608083E0E8F0E08081816080832A
:10047000E1EBF0E0808184608083E0EBF0E080815C
:1004800081608083E1E9F0E0808182608083808107
:1004900081608083E1EAF0E08081826080838081F6
:1004A00081608083E1E2F1E08081826080838081ED
:1004B00081608083E0E9F0E0808181608083E0EA10
:1004C000F0E0808181608083E0E2F1E08081816002
:1004D0008083EAE7F0E080818460808380818260AD
:1004E0008083808181608083808180688083109296
:1004F000C1000895282F30E0C90188589E4FFC01A3
:1005000094912E5C3E4FF9018491882391F0E82F5D
:10051000F0E0EE0FFF1FEC51FF4FA591B491662361
:1005200029F48C91909589238C9308958C91892B33
:100530008C930895482F50E0CA0182549E4FFC01CD
:100540002491CA0188589E4FFC0194914E5C5E4FE5
:10055000FA013491332309F477C0222309F462C0ED
:10056000233021F4809180008F7705C0243031F44E
:10057000809180008F7D8093800054C0213019F4D9
:1005800084B58F7704C0223021F484B58F7D84BD7B
:1005900049C0263021F48091B0008F7705C0273004
:1005A00031F48091B0008F7D8093B0003BC0283043
:1005B00021F4809190008F7705C0293031F480912B
:1005C00090008F7D809390002DC02A3021F480917F
:1005D0009000877FF7CF2B3021F48091A0008F7798
:1005E0000BC02C3021F48091A0008F7D05C02D30F0
:1005F00031F48091A000877F8093A00013C02E303B
:1006000021F4809120018F770BC02F3021F480914D
:1006100020018F7D05C0203129F480912001877F42
:1006200080932001E32FF0E0EE0FFF1FE250FF4F19
:10063000A591B491662329F48C91909589238C938C
:0E06400008958C91892B8C930895F894FFCF28
:08064E000D0018001A00803EA7
:00000001FF
